:020000040000FA
:0718000002184E1A3E1A43C4
:01180700FFE1
:101808007FB8EF90181393901900730A20364CE5AF
:1018180067FF22EFF5672235313230313939001A46
:10182800F71AFC0238C9000DFA20000DDC70000020
:101838000000020C00013F3F3F0404044040400008
:1018480000000002392B75818C75FF03759E02120A
:1018580019200230EC0224AC9021C7E47E01936089
:10186800F4A3FF543F30E509541FFEE493A360013D
:101878000ECF54E0B4E00EEFFAEEF9A3A3A3A3DA77
:10188800FDD9FB80D654C025E0604B5026E493A3D5
:10189800F85407240CC8C333C4540F4420C88340E9
:1018A80004F456800146F6DFE480B0010204081013
:1018B800204080E493A3FAE493A3F8E493A3C8C573
:1018C80082C8CAC583CAF0A3C8C582C8CAC583CAA4
:1018D800DFE9DEE78085E493A3F8E493A34003F609
:1018E8008001F208DFF402186319C119C619CB196F
:0718F800D019DA19EE19F313
:0118FF00FFE9
:10190000C0677419C0E0C082C08375670AE5FF54E0
:10191000CF4490F5FF22C0677419C0E0C082C08335
:10192000756720E5FF54CF4490F5FF22C067741916
:10193000C0E0C082C083756736E5FF54CF44A0F590
:10194000FF22C0677419C0E0C082C08375674CE590
:10195000FF54CF44B0F5FF229090222116909FFBB8
:101960002116909FFE211690A808211690AD1921EE
:101970001690AD12211690AFF6211690B0012116E7
:1019800090A617211690B021211690B84F211690DD
:10199000C826211690CBFD211690CC152116908BD0
:1019A0006E211690C4DA211690B660211690903BF5
:1019B000211690CE65211690CE81211690C6E32186
:1019C0001690CF87211690CF5D211690C5B62116AF
:1019D0009087B9211690C774211690CFB321169025
:1019E000B63A211690B4C4211690C3CF211690C3E5
:1019F0006F211690C2CE211690CFC8211690C69D99
:101A0000211690AEC1211690A827211690A0692119
:101A10001690D283211690D170211690D3A621164C
:101A200090A030211690D3B4211690D3F9211690AE
:101A3000D417211690D462211690D4B6211690D5D1
:101A40002A211690A637211690BA9C211690B887A5
:101A5000211690BA6C211690BA62211690D58E216B
:101A60001690D5FD211690D5E2211690800C2142CA
:101A700090800121429081BD21429081CE214290EF
:101A80008233214290809E21429082812142908126
:101A90005821429082CD21429081E321429083DE01
:101AA0002142908514214290863E2142908000215F
:101AB000429086AD214290C337212C90C338212C0F
:101AC00090C56B212C90BE47212C90AC02212C900C
:101AD00097ED212C90CA42212C90CA7C212C90CACF
:101AE00080212C909D8E212C90C9C6212C90D4D77A
:101AF000212C90C944212C90B690212C90D56B219B
:101B00002C90A113212C90D940212C90CDD0212CA8
:101B100090B6DA212C90DDA8212C90DDB4212C90F8
:101B2000DDC8212C9090C8212C90E01F212C90B66C
:101B3000A5212C90B6BB212C90E0CF212C00BB011D
:101B40000689828A83E0225002E722BBFE02E3225A
:101B500089828A83E49322BB010CE58229F582E520
:101B6000833AF583E0225006E92582F8E622BBFE9F
:101B700006E92582F8E222E58229F582E5833AF535
:101B800083E49322BB010989828A83F8E028F0224A
:101B9000500327F722BBFE05F8E328F3228A838946
:101BA00082F8E4932822BB010FF8E58229F582E54B
:101BB000833AF583E028F0225009C58229F8E582AE
:101BC00026F622BBFE09C58229F8E22582F222F818
:101BD000EA2583F583E9932822BB010689828A835B
:101BE000F0225002F722BBFE01F322F8BB010DE503
:101BF0008229F582E5833AF583E8F0225006E9254B
:101C000082C8F622BBFE05E92582C8F222EF8DF0DC
:101C1000A4A8F0CF8CF0A428CE8DF0A42EFE22BC78
:101C2000000BBE0029EF8DF084FFADF022E4CCF86C
:101C300075F008EF2FFFEE33FEEC33FCEE9DEC98D1
:101C40004005FCEE9DFE0FD5F0E9E4CEFD22EDF857
:101C5000F5F0EE8420D21CFEADF075F008EF2FFFFA
:101C6000ED33FD4007985006D5F0F222C398FD0FE2
:101C7000D5F0EA22C2D5EC30E709B2D5E4C39DFD28
:101C8000E49CFCEE30E715B2D5E4C39FFFE49EFE72
:101C9000121C1FC3E49DFDE49CFC8003121C1F303A
:101CA000D507C3E49FFFE49EFE22C5F0F8A3E02819
:101CB000F0C5F0F8E582158270021583E038F02255
:101CC000A3F8E0C5F025F0F0E582158270021583D7
:101CD000E0C838F0E822BB010A89828A83E0F5F087
:101CE000A3E022500687F009E71922BBFE07E3F5BF
:101CF000F009E3192289828A83E493F5F074019351
:101D000022BB0110E58229F582E5833AF583E0F5EF
:101D1000F0A3E0225009E92582F886F008E622BB0C
:101D2000FE0AE92582F8E2F5F008E222E5832AF5C9
:101D300083E993F5F0A3E99322BB010DC58229C580
:101D400082C5833AC583021CAA5011C58229F808AE
:101D5000E5F026F618F5F0E58236F622BBFE11C551
:101D60008229F808E225F0F5F0F218E23582F22235
:101D7000F8E58229F582E5832AF58374019325F03D
:101D8000F5F0E4933822BB010A89828A83F0E5F0FA
:101D9000A3F0225006F709A7F01922BBFE06F3E5CF
:101DA000F009F31922EF2BFFEE3AFEED39FDEC3886
:101DB000FC22C3EF9BFFEE9AFEED99FDEC98FC220E
:101DC000E88FF0A4CC8BF0A42CFCE98EF0A42CFCC2
:101DD0008AF0EDA42CFCEA8EF0A4CDA8F08BF0A440
:101DE0002DCC3825F0FDE98FF0A42CCD35F0FCEB9F
:101DF0008EF0A4FEA9F0EB8FF0A4CFC5F02ECD3964
:101E0000FEE43CFCEAA42DCE35F0FDE43CFC22755A
:101E1000F008758200EF2FFFEE33FECD33CDCC33CB
:101E2000CCC58233C5829BED9AEC99E58298400C33
:101E3000F582EE9BFEED9AFDEC99FC0FD5F0D6E411
:101E4000CEFBE4CDFAE4CCF9A88222B800C1B900F7
:101E500059BA002DEC8BF084CFCECDFCE5F0CBF958
:101E60007818EF2FFFEE33FEED33FDEC33FCEB3350
:101E7000FB10D703994004EB99FB0FD8E5E4F9FA7E
:101E8000227818EF2FFFEE33FEED33FDEC33FCC963
:101E900033C910D7059BE99A4007EC9BFCE99AF9F6
:101EA0000FD8E0E4C9FAE4CCFB2275F010EF2FFF65
:101EB000EE33FEED33FDCC33CCC833C810D7079BCF
:101EC000EC9AE899400AED9BFDEC9AFCE899F80F32
:101ED000D5F0DAE4CDFBE4CCFAE4C8F922EF5BFFFD
:101EE000EE5AFEED59FDEC58FC22C3E49FFFE49E40
:101EF000FEE49DFDE49CFC22EB9FF5F0EA9E42F09F
:101F0000E99D42F0EC6480C864809845F022EB9F24
:101F1000F5F0EA9E42F0E99D42F0E89C45F022E8A7
:101F2000600FECC313FCED13FDEE13FEEF13FFD8AF
:101F3000F122E8600FEFC333FFEE33FEED33FDEC2B
:101F400033FCD8F122BB010789828A83021FBC506F
:101F500005E9F802218BBBFE05E9F802219722E092
:101F6000FCA3E0FDA3E0FEA3E0FF22E493FC7401E8
:101F700093FD740293FE740393FF22E0F8A3E0F94B
:101F8000A3E0FAA3E0FB227401FF3395E0FEFDFC21
:101F9000A3A3A3E02FFFF0E582158270021583E072
:101FA0003EFEF0E582158270021583E03DFDF0E50E
:101FB00082158270021583E03CFCF022ECF0A3ED68
:101FC000F0A3EEF0A3EFF022A8828583F0D083D0B7
:101FD00082121FDF121FDF121FDF121FDFE473E404
:101FE00093A3C583C5F0C583C8C582C8F0A3C583C4
:101FF000C5F0C583C8C582C822A42582F582E5F054
:102000003583F58322E0FBA3E0FAA3E0F922F8E0B0
:10201000FBA3A3E0F925F0F0E58215827002158399
:10202000E0FA38F022EBF0A3EAF0A3E9F022E4931F
:10203000FB740193FA740293F922BB010789828A27
:10204000830220055005E9F80221A3BBFE05E9F84B
:102050000221B589828A8302202EBB011A89828AD5
:1020600083D0F0D0E0F8D0E0F9D0E0FAD0E0FBE89F
:10207000C0E0C0F00220255016E9F8D083D082D00D
:10208000E0F9D0E0FAD0E0FBC082C0830221ACBB13
:10209000FE16E9F8D083D082D0E0F9D0E0FAD0E0A3
:1020A000FBC082C0830221BE22BB010DE58229F55F
:1020B00082E5833AF5830220055007E92582F8027C
:1020C00021A3BBFE07E92582F80221B5E58229F5A7
:1020D00082E5833AF58302202EBB0120E58229F5B3
:1020E00082E5833AF583D0F0D0E0F8D0E0F9D0E093
:1020F000FAD0E0FBE8C0E0C0F00220255018E92546
:1021000082F8D083D082D0E0F9D0E0FAD0E0FBC0F2
:1021100082C0830221ACBBFE18E92582F8D083D0AF
:1021200082D0E0F9D0E0FAD0E0FBC082C083022187
:10213000BE22D083D082F8E4937012740193700DA4
:10214000A3A393F8740193F5828883E473740293D4
:102150006860EFA3A3A380DF8A838982E473EC8E97
:10216000F0A4CCC5F0CCCDF8EFA4CEC5F02DFDE4A5
:102170003CFCE8A42EC8C5F03DFDE43CFCEFA4FF08
:10218000E5F028FEE43DFDE43CFC22ECF608EDF62B
:1021900008EEF608EFF622ECF208EDF208EEF2088F
:1021A000EFF222E6FB08E6FA08E6F922EBF608EA87
:1021B000F608E9F622E2FB08E2FA08E2F922EBF27D
:1021C00008EAF208E9F2224103BF00E0020200003F
:1021D0001268E002020002120EE00102000954E05F
:1021E0000102000AA5E00502120B120E02042141B1
:1021F000051F0601140041051E0141051C01C12BEC
:102200000119000117004127BC00C12EC122412243
:10221000380041229EFF41229600C121C120412267
:102220009F004122A00041229701C1244122370092
:10223000C128013000C125C126412C9000C1564360
:1022400026BC0000004126BB004126BF00C138C1AA
:102250002FC1314F2528FF24DB0BFF24E701FF248A
:10226000E6012211074925004C6966656C696E65B7
:1022700000482516260380037A045A0141254D00A3
:10228000C115C109C10FC117015C004125110041F1
:10229000254C00C101C10442253B00C8412539003D
:1022A000412527644124FC01C113C11141253E0A87
:1022B00041251EFFC10C4125260041251F00412557
:1022C00037FE412520FEC114C10241252300C10B68
:1022D000C10DC108C10741251500C110C105412527
:1022E0003D00C103C15BC143C142E00202121000C4
:1022F00044E00502124F0044040B03E002021254B2
:102300000013E00C021256026E828352535A310BB4
:10231000030421E0050212620013FF0B03E0020236
:1023200012670000412A18FF412A1604422A1900A8
:1023300000C1E2412A1400412A17004329B10000DC
:10234000004129B4004125A3004125A201C1E84371
:102350002B1D0000004328E40000004128E200415A
:1023600028E700442BE800000000C16C41266728E4
:1023700051264600000000000000000000000000A0
:10238000000000004B294200000000000000000097
:1023900000004227F100004227F300004727EA002F
:1023A0000000000000004127F50200902A3BEBF0FE
:1023B000A3EAF0A3E9F0902A3EE0FBA3E0FAA3E051
:1023C000F9121B3EFE902A3BE0FBA3E0FAA3E0F9E2
:1023D000121B3EFF6E702AEF600E902A4174FFF5CB
:1023E000F0121CAA45F070037F0022902A3CE4758D
:1023F000F001121CAA902A3FE475F001121CAA8079
:10240000B5902A3BE0FBA3E0FAA3E0F9121B3EFDE6
:10241000D3EE6480F8ED64809840037F0122902A17
:102420003EE0FBA3E0FAA3E0F9121B3EFFC3ED9FE1
:10243000FF22C2D5E830E70FB2D5E4C39BFBE49A94
:10244000FAE499F9E498F8EC30E717B2D512246869
:10245000121E4BE4C39BFBE49AFAE499F9E498F862
:102460008003121E4B30D50DE4C39FFFE49EFEE4B3
:102470009DFDE49CFC22788CE4F6D8FD9000007F62
:10248000007E10E4F0A3DFFCDEFA904FFFA3E583AB
:10249000C394204011FEAF829020000E0FE4800212
:1024A000F0A3DFFCDEFA12192002186022323F246A
:1024B0001E16110E0B09070504030201F0C8A791AF
:1024C000776760463835323024222014000101023B
:1024D00002030304040505060607075E26855972F4
:1024E000865A73257A8000001AD41AD91ADE1AE3A4
:1024F0005A2D5761766520342E333300822D1C16F9
:1025000013111010198A19941999199E1B101B1573
:102510001B1A1B1F1AE81AED1AF21B011B061B2EB1
:102520001B331A111A1B1B0B1B38E4F97D0CAC0171
:1025300009EC9024F093FC0FEFAA0670010E14F53D
:10254000828A83ECF0DDE77F03228F828E83E4F0C2
:10255000A37404B15D7421B15DA3E4F022F08F8215
:102560008E83A3A322125372121A481219B2121A9E
:102570007F125D77606C7E007F09D147BF540D7E6E
:10258000007F0AD147BFA5047F0180027F0090052C
:1025900061EFF07401F060287E007F00D147EFFD0D
:1025A0007412B5051374002401FFE43400FED14712
:1025B00074686F7001E46008122AC4900561EFF03E
:1025C000900561E0701C7E007F04C006C3746894AF
:1025D00004FE7412122E63D006125DEAE4FFFE12AE
:1025E0003B98125D777F0060027F011219FD121A7D
:1025F0000212198F125BC97A12791E1219621238EF
:102600000AFE4FFDA3E0FC4DFDA3E0FB4D600BEE89
:102610005FFFEC5FFFEB5FF4700312356190121CFB
:10262000E0FF5403241EF582E43412F583E06F903A
:1026300003BAF0021AB1E075F002A42485F9740F10
:1026400035F07B02FEAF01E4FCFD902B45121FBC70
:1026500012286CF132EF600512382B80F6125B9B6A
:10266000600A902B45121F5F7810D18B902B45D1BB
:1026700086902B45125D25F126902B49EFF0F177DE
:10268000902B49E0FF22121F5F7808121F1FE4E51C
:10269000C820E2FB8FEB227F01F17C902C82740139
:1026A000F0902C82E06032125DB3F126902C82EF24
:1026B000F01228F8F1159027B0EFF01228F8902CBE
:1026C00082E05401125DF260D8A3E0F460D3EF30F1
:1026D000E7CFE4902C82F080C8F1F77F9FD18FF193
:1026E000269027B1F1249027B6F1249027B7EFF078
:1026F000F1779027AFE0F4601BA3E0F46016902719
:10270000B6E0FD541F240FA3F0EDC413540744801A
:102710009027B6F022F1F77FD7D18F7FFFD18FF1CD
:102720002A9027AFEFF07FFFD18FE5C820E2FBAF03
:10273000EB227F01F17C304A16125DB3F126902C1A
:1027400084EFF01228F8902C84E020E002C24A3096
:102750004A19F1159027B0EF125DF2600BA3E0F477
:102760006006EF30E702C24A1228F8E4FFF17CA2CB
:102770004AE433FF22D18F1228F8E4FFEFB40104BA
:1027800043FE202253FEDF22902B4A121FBC902BC7
:102790004A121F5FD14A902B4EE06F603A12286CAC
:1027A000F132EF600512382B80F61228E9F1F7902C
:1027B00027B2E0FF125BA5600A902B4A121F5F78D8
:1027C00010D18B902B4AD186902B4A125D25902BED
:1027D0004EE0FFF175D322C3229027AFE020E01234
:1027E000F1F37F3DD18F7F2AD18F7F80D18F7FA65C
:1027F000F175227F01F17C9027B4E0313228190471
:10280000282114282615282B17283B302840342847
:102810004536284A37000028335358EF85588080C2
:102820002F5359EF80085359DF800353597F85593F
:1028300090801D535ADF855AA08015535BFE800D92
:10284000535BEF8008535BBF8003535B7F855BB0B6
:102850007F0CDFFE2275FF0275E40475E40175E468
:10286000022275FF0275E404E4F5E42275FF02E537
:10287000E430E10675E40675E4032290297F121F17
:10288000BC902983122025116C122732EF600512AB
:10289000382B80F511E91227F79027B2E0FF125B81
:1028A000A5600B90297F121F5F781012268B90294C
:1028B0007F12268690297F121F5FE4802090298650
:1028C000125C7C601D902983122005EA494B600B45
:1028D000902983125BF8121B3E8001E4FF12268FC1
:1028E00080DB11F8E4FF02277C7F0112277CD24AAB
:1028F0001227F77F0612268FF1EFEF70FB9027B6B5
:10290000E0F4600B902C817406F0125DFA70FB907D
:1029100027B4E0122132293204293A14293F15291B
:102920004417295430295934295E36296337000069
:10293000294C435810855880802F435910800843F4
:1029400059208003435980855990801D435A208522
:102950005AA08015435B01800D435B108008435BE8
:10296000408003435B80855BB0902C81740CF01237
:102970005DFA70FB22116C122732EF600512382BC2
:1029800080F511E91227F77F0112268F7F031226A7
:102990008F11F8E4FF02277C90290B121FBC9029AD
:1029A0000F12202551A49029121255FD90290B12C7
:1029B0001F5F12555C5002415E9027B9E024FFFF73
:1029C0009027B8E034FFFEE4FCFD90290B121F7B3A
:1029D000121EDD902914EEF0A3EFF04E603B90291B
:1029E00014123D159027B9E09FFF9027B8E09EFE96
:1029F000902914F0A3EFF0902912E0FCA3E0FDD39E
:102A00009FEC9E5003125C945160E94A6005125D90
:102A10007E80427E007F00803C902912F1D9603C8C
:102A20009027B8E0FCA3E0FDD3EF9DEE9C400A9018
:102A30002914ECF0A3EDF0800D902912E0FFA3E043
:102A4000A3CFF0A3EFF05160E94A6005125D7E80EC
:102A5000047E007F00902910F1A080BDD322C32204
:102A600090290F122005902914E0FFA3E0902986F9
:102A7000CFF0A3EFF090290B121F5F117B90291468
:102A8000E0FEA3E0FFC3902913E09FF0902912E03D
:102A90009EF090290B121F7BE4FCFD121DA59029CE
:102AA0000B121FBC90290F0220057402F0902A53CC
:102AB000F1E8C007902A53122005902A56125CF6BE
:102AC000D00721987E7F7F949026AEEEF0A3EFF0A2
:102AD000F5828E83B1D4E94A4B70026177B1E0F19F
:102AE0008D7A2679B1B1F2125DC4FFB1E0125E02B7
:102AF000125DCC9026AB122025AE02B1EA9026B929
:102B0000E0FEA3E0125D877003E4936E7F00600235
:102B10007F019026B0EF125C3F2402B1E69026B010
:102B2000E0FF9026B9E0FCA3E0FD907FC274019322
:102B30006D7003E4936C7E0060027E01125C3A24A7
:102B400008B1E6125D4394039026B9E0940B7E0031
:102B500040027E01125C3A240AB1E6125D439421E0
:102B60009026B9E094047E0040027E01EF4E90264C
:102B7000B0F060037F0022125B51F0AE02AF01ACF7
:102B800002AD01E02DFD9026B3E03CCD2402CD3412
:102B900000FC123B98B1E0E94A4B7002815E815122
:102BA000F1E0FDC39480EC947F5002A1A0125B5130
:102BB000F08D828C83B1D4E94A4B6060B1E0F18D35
:102BC0007A2679B1B1F2125DC4FF125B80F9E43A62
:102BD000FA125E02B1CE9026A8122005C003C002F0
:102BE000C001B1C6D3D082D083D0E0125C7540332F
:102BF000125B80FEE43A9026B5F0A3CEF0B1C69009
:102C000026B4E029FF9026B3E03A9026B7125D5F24
:102C10009026B5E0FEA3E0FFD1F28007125DBBD1A4
:102C20006BB1CE125C0A4029B1C6125CD9CF24FB2D
:102C3000CF34FFFEC006D16C125C5BD00651ADB143
:102C4000C6125D19CF24FBCF34FFB1B6125B8A5197
:102C5000AA9026AE74FF75F0F6121CAA61A0902609
:102C6000AE747FF0A37480F0F1E0FDC39494EC9413
:102C70007F4002A1A09026AE125D5512202E902614
:102C8000A51220258F828E8374069324FEFE740580
:102C90009334FF9026B3F0A3CEF08D828C8374031F
:102CA00093FF7404939026B1CFF0A3EFF09026B178
:102CB000F1D97002A153F1E0F5828C83740793245B
:102CC000FC601C146028240370407A007900B1CCA9
:102CD000B1C6C3EF99FFEE125BEA9026B1801A7B72
:102CE000017A607900B1CEB1C6125BDF800B7A60E9
:102CF0007940B1CCB1C6125BDFF0A3EFF0E924025A
:102D0000F9E43AFA9026A5122025125D38B1C6E9F9
:102D10006F7002EA6E601B125D389026B5EEF0A36C
:102D2000EFF0B1C6AC02AD019026B7ECF0A3EDF028
:102D3000D1F29026AE123CE37407936402701B7EBE
:102D4000007F097D5412554F7E007F0A7DA51255E4
:102D50004F8007125DBBD16BB1CE125C0A4035B11A
:102D6000C6125CD9FEC006D16C125C5BD00651ADB8
:102D7000B1C6125D19B1B6E924FE9026A5F1F59011
:102D800026AEE0FEA3E0F582125B68F0125B8A7467
:102D900002F051AD9026AEE475F00A121CAA8168CB
:102DA0009026B37412F0A37468F07E007F00125B6B
:102DB0008E51AA7F0122FE9026B4E029FD9026B311
:102DC000E03AFC123B989026A50220057B01902654
:102DD000A8022025740793FFD1739026A212202504
:102DE0009026A2022005F9E43AFEAF017B017A2683
:102DF00079B9902AD47402F0902AD1F1E8C00790F2
:102E00002AD1122005902AD4125BFFD0079029887E
:102E1000121FBC90298C122025116C122732EF60F2
:102E20000512382B80F5125B9B600B902988121FCE
:102E30005F781012268B9029881226869029881296
:102E40005D2590298F125C7C601212272690298CB8
:102E5000124B9890298DE412392580E611F8E4FF91
:102E600002277C9400902A56F0A3CEF07B007A00D3
:102E7000790022902900EFF07B027A007902A312F8
:102E800020258062902907F1D96065902901125CA4
:102E9000E6E924FB902904F1F5F18D7A297909B14D
:102EA000F2902909E0FEA3E0FF902907E0B5062192
:102EB000A3E0B5071C902904122005E92402125D45
:102EC0004E122647902900E0B507089029040220F9
:102ED00005801D902907E0FEA3E0FF902902F1A0E4
:102EE000902901122005F18D7A297907B1F2809499
:102EF000C16C9026B1E0FAA3E0FB90241E125C8F17
:102F0000125CD0D390241FE09D90241EE09C402EA4
:102F1000125CA54077125E0A40047F8080069024F0
:102F200022A3E0FF902424EFF090241EE0FEA3E013
:102F3000FFF1A67E00125D2C9EF0F19480D29024C9
:102F400022E0FEA3E0FFF194125CA5403F125E0A6E
:102F500040047F808006902422A3E0FF902424EF89
:102F6000F0FD7C00C390241FE09DFF90241EE09C98
:102F7000FEF0A3EFF0C3902421E09DF0902420E028
:102F80009CF0F1A6125D2C9400F080BC22AE02AF42
:102F9000017B012290241EEE8FF0121CAA902420A7
:102FA000EE8FF0021CAA7B017A247925902424E07C
:102FB000902AD4F0B1F8902420E0FEA3E0FF7B013A
:102FC0007A247925902424E0FD902A56E4F0A3ED9C
:102FD000F051AD902424E0FF22E0FEA3E0FF4E225A
:102FE0009026AEE0FCA3E022122025E4FCFD22E5C1
:102FF000C85404FF22F9EA34FFFA02202590054C58
:10300000EFF090054EEBF090054DEDF0540290126C
:1030100029F0125D66600712501A5002C322900513
:103020004CE0B4040BA3117190054C7403F080259F
:1030300090054CE064057018901223E090054D3027
:10304000E50611717F1F80041179E4FFF1CB800543
:1030500090054D117990054CE09003BFF090054E1E
:10306000E0901228F0F1529003C6EEF0A3EFF0D3F7
:1030700022E0FB7D017F018006E0FB7D01E4FFEBA8
:10308000600875FF0153CDFD800675FF0143CD0239
:10309000ED600553FBDF800343FB20EF600775FF06
:1030A0000243E1402275FF0253E1BF22901232E059
:1030B000FD7F01125239901223E090122930E5066B
:1030C00011717F1F80041179E4FFF1CB7F0143FB75
:1030D0001075FF0243E640EF600D75FF02E5E12049
:1030E000E7FB43FB0D800343FB0E80FE75FF02757B
:1030F000E404E4F5E4C22A75FF02901215E0603A98
:10310000E5E6540364017032121A2FD187401F90F4
:103110001228E0600DE014F07008122476E490129A
:1031200015F0901215E0700221C511AC21C51224D2
:1031300076D22AE4901215F021C512247612526636
:103140009003C0EFF0901200E0B47A14901214E0F3
:10315000B49C0D9003C0E0FF64056004EFB4032E3F
:10316000E49003C5F09003C5E0FFC394405013E41E
:103170002FF582E43412F583E4F09003C5E004F007
:1031800080E3901200747AF0901214749CF0121A7A
:10319000617B017A1279107D017F01121A5C7B013B
:1031A0007A1279117D017F21121A5C7B017A1279E2
:1031B000127D017F22121A5C7B017A1279227D0135
:1031C0007F02121A5C901222E0B401057F011252B4
:1031D00028121A34125266121A2A9003C0EFF01203
:1031E00019B7121A259003C0E0FFB40602800C3014
:1031F0002A047F0280059003C0E0FF121ABBEF246F
:10320000FFB3925675FF0253E6BF125D776005E487
:10321000901215F01238AD121A3912256590121558
:10322000E0700F20560C121AC07B017A2279A2128C
:1032300019DF901223E030E0028003302A047F017E
:1032400091DED2AF20560241C8121A7A71B4121A16
:10325000C5121A8940F39003BFE06041121A52EF81
:103260007005125C484036E51470FCE51520E50257
:1032700091F912195DEF70FA1252165005125202AE
:1032800050057F0112533E9003BFE0B40204E4FFF7
:1032900080099003BFE0B403047F0111CE121A4DE0
:1032A000E51530E1A4F1DA4002E4F0E51520E5048B
:1032B00071969157125C1EC0E071A49003C2E0FDAC
:1032C000D0E0FF1219AD808112384EF1F15002B1F9
:1032D000619003BFE0605D902238E07057121A528F
:1032E000EF7005125C48404CE51470FCE51520E5D4
:1032F00009901223E020E00291F912195DEF70FAB3
:10330000125216500512520250057F0112533E9080
:1033100003BFE0B40203E480189003BFE0B40304E9
:103320007F01800E9003BFE0B4050990121574016F
:10333000F0FF11CE121A7A71B4121AA7121ACA200B
:103340003205121A4D8021F1529003B9E0FEEFC30D
:103350009E4005EF9EFF80089003B9E0F4042FFF24
:103360007406D39F5002C232E51530E121F1DA40F4
:1033700002E4F0E51520E50471969157125C1EC039
:10338000E071A49003C2E0FDD0E0FF1219AD121A63
:103390001612389B41C89003C1E0FD75F0AA900356
:1033A000C8121FF9ED75F002A424BBF9740335F0BF
:1033B000FA7B0122E4902C80F0900000E0606390A2
:1033C0002C80E0FF04F0EFC394055056900000E01D
:1033D00014F0E4F561E561C3940C50DD9123E0FE47
:1033E000A3E04E60399123125D6D70329133E0FF9E
:1033F0006008F460059133E014F09133E0600FE56C
:1034000061124EE29150FF9123EEF0A3EFF0914351
:103410004E60089143AA06F912215812382B056113
:1034200080B322E56175F007A424A5F582E4342475
:10343000F58322E56175F007A424ABF582E434241A
:10344000F58322E56175F007A424A9F582E434240C
:10345000F583E0FEA3E022AF82AE837D01900541BB
:10346000125BAFE5147076D1D15004C252B11F90F7
:103470000541E0FEA3E08E11F512A3122005900590
:1034800020122025AE11AF127DAA124F78E4F5FF6D
:1034900075D901F510E5155421602BE51530E504CB
:1034A000E4FFF16EE4900546F0900546E004F0126A
:1034B0003E4FEF6009900546E0C3941040EB7F0259
:1034C000121AB65315DE90051CE07F00B403027F8C
:1034D00001F1ACD252B11FD2EBA22992ED22EF60E2
:1034E0000C7196AF82AE83E4FD915D8009121A578C
:1034F00091F9E433FF227F0122E5147020D1D150ED
:1035000004C252B11FD1E8F1BFE5D120E0FB431561
:10351000205315FEE4F510A22992EDD322C3229088
:103520002C85E5F4F0E0547FF5F47F827E00F11005
:10353000F1475005E5FC20E6F7305208902C85E075
:103540004480F5F4F10CF1475005E5FC20E6F775F1
:10355000FF01E5D520E702C322E5F4D330E601C33D
:1035600022E4FF91DEEF603BD1E1B1A490121EE0B6
:10357000C394C040F37B017A127920B1A412380AB7
:103580005FFFA3E05FFFA3E05FF460E9901223E038
:1035900030E0047F0191DEE490121CF0D1E1E0FD07
:1035A00012196722900552122025C247E4FF91DECE
:1035B000BF010B90055212200512464492477F012D
:1035C00091DEA2472290055BEFF0C253123E27D254
:1035D0003490055BE0902BF7F0D235A3E4F0A374B0
:1035E0000DF0123D5AE490055CF0D1D95068900579
:1035F0005CE07062E5F754C060F0D16CD17F645537
:103600007040D17F90121CE06F7032D17F644A60AD
:1036100018E0FF640A6012EF6455600D90121CE020
:10362000FF90055CE0FE6F700590055C800A9005D8
:103630001DE06E90055C70197402F080AD90055C21
:10364000800F90055CE0B454057433F0809C9005C5
:103650005C7401F0809490055CE0B40206C252B143
:103660001F8000123D4D90055CE0FF22E5F720E051
:1036700008E5F754C070F5FF2243F701AFF922D1F6
:103680006C90055CEFF022124FBF7F02121AB67FDA
:1036900001B1C5900563EFF0BF020280139005638E
:1036A000E0B43311E4F07F01B1C5BF020D900563B2
:1036B0007401F08005E4900563F0900563E0700A02
:1036C000D1D95004C252B11FD1E8900563E024FF64
:1036D00022C2EBA2ED9229C2EDE5F4C330E701D39B
:1036E000227B017A12791E22D1EF7F08021AB6E5F9
:1036F000FA30E1FB75FC8075FF0153D5EFE4F5FC72
:1037000075FC40123E48E5FC20E6FB227FE87E0384
:10371000F1148053902BA4EEF0A3EFF07B017A2BF1
:1037200079A6123FEB5014902BA6E0FEA3E0FF9089
:103730002BA5E09F902BA4E09E400B902BA4E0FED5
:10374000A3E0FF123E0A2275FF03E591C330E701B3
:10375000D322A2AD9244C2AD125D98A24492AD2292
:103760007FC87E00123E0A75FF034391802275FFD9
:1037700001E5D530E602C322E4F5FF439A80EF125B
:103780005D11E4F5FF539A7FD322F1BBE5D120E030
:10379000FBE4F5FF75D90190051CE07F00B403023E
:1037A0007F01F1ACD252B11FE4F51022F16E43FA61
:1037B00004E4F5FF53D1FD43D10122C252B11FE40D
:1037C000F5FFE5D154FE4402F5D12275FF028FE3E7
:1037D00022C2AFEFF45215D2AF227F02F1D1900393
:1037E000C1E09003C5F09003C104F0C394022280AD
:1037F000DA90121CE0701112380A4FFFA3E04FFF5D
:10380000A3E04F7003D38001C32290121EE0FFA3F8
:10381000E0229003BAE064AA2411FFF022AE07115F
:1038200012EE04FEEF8EF084AFF022E51530E20FC9
:10383000E51520E50AE51530E0057F011234DE22AA
:1038400012286C122732EF6004112B80F6223033DD
:103850000C902238E07006FF1219BCC233302A28BF
:103860009024F9E0A3E0FF90053DE0FEEFC39E4009
:103870000AEF9ED394024010C22A2290053DE0F444
:103880002FD394014002C22A229003C3E0FCA3E09C
:103890004C70069003C302306AC3229003C3122FF8
:1038A000D96009CAEECAC9EFC91221582275FF02B0
:1038B000D2ADD2BD75FF02758E7175600975FF02BC
:1038C000E58E546F4480F58E22C0E0C0F0C083C006
:1038D00082C0D075D008C0FF75FF02E58E30E428A5
:1038E00075FF02E58E54EF4410F58E900000E00461
:1038F000F0E56030E0020531E560700A756009901E
:1039000024F931258002156075FF02E58530E40851
:1039100075FF024385100563D0FFD0D0D082D083DD
:10392000D0F0D0E03275F001021CAAC0E0C0F0C0B7
:1039300083C082C0D075D008C0FF75FF01E5D530C7
:10394000E6047F028009E5D57F0030E7027F018F22
:1039500018E51864026002410CE51412213239772F
:1039600001398A0239F80839950939A00A39AE0BAC
:1039700039CC0C00003B7D75FF0175C355151AE568
:103980001A6002617D751402617D75FF0175C3F0D7
:10399000751409617D75FF0175C35575140A617D44
:1039A00075FF01900530E0F5C375140B617D75FF5F
:1039B0000190051DE0F5C3751401751A1490053FBB
:1039C000125D6D6002617D75140C617DAB1CAA1DDA
:1039D000A91E124BA7AD16AF1F124F0CE4FB7D01C1
:1039E000FF124B4075FF00124EF743FA0475FF00BB
:1039F0001237B4751408617DC2EB751400431504C9
:103A00001250E94002617DE43125617DE5186401D1
:103A10006002617DF1CD4002617DE51070257191FC
:103A2000E0FF64556004EFB4540ED22A9024F9E00C
:103A3000A3E090053DF041FD75100275FF0075D9BA
:103A400008617DE51064027062B13FE5D9121BD9AF
:103A50001259CC1250BB90051CEFF0B133E0900529
:103A600062F0E0FFD39409402590051CE0D3940256
:103A7000400CEFD394AA7F0040027F01800D900597
:103A800062E0D394407F0040027F01EF6004B12BDD
:103A9000806B900562E0F5161259C190121DEFF08F
:103AA00075FF008516D9751003617DE5106403600C
:103AB00002617DB13FF1DBE5D9121BD9B12B75FF56
:103AC0000090051CE0C39403E5D350055402FF8029
:103AD000035401FFEF602B30E111C390052AE094FD
:103AE000FF900529E094FF5014800FC390052CE04F
:103AF00094FF90052BE094FF5003E4312512378AA0
:103B0000807BC25212351F75FF001237C2E5D120EB
:103B1000E0FBC2EB4315027191A3E0FF90121FE09E
:103B2000FEEF6E7190E090121E718AA3A3E09012D6
:103B300020718AA3A3A3E0FE901221E0FDEE6D4F59
:103B40006012C390052EE094FF90052DE094FF5085
:103B500003E43125C3900528E094FF900527E09405
:103B6000FF5003E4312575100090051CE0B40307F5
:103B70001516B133E516F09003C2E516F0D0FFD06C
:103B8000D0D082D083D0F0D0E032FEE0FDEE6D4F99
:103B9000FF85128285118322902894125C8FA37472
:103BA00021F0A374C7F091E0E493700281DFE49305
:103BB000FF541F90289AB11CEFC4135407122132EE
:103BC0003BDC003BDE013BE0023BF9033C12043CE2
:103BD00024053C39063C430700003BA68034804462
:103BE00091E0740193FF74029390289CCFF0A3EFAF
:103BF000F090289BE02403804691F8FE91EC74023B
:103C000093FD74039390289CCDF0A3EDF0EF240472
:103C1000802291E074019390289CF1D490289BE03D
:103C20002402801B91F8FE91EC74029390289CB1C1
:103C30001CEF2403FFE43E81D590289BE02401B1D2
:103C40002381D591F891EC740393FE902898A3E01A
:103C5000F5828C8374049390289C125C86D3902800
:103C600095E09F902894E09E5063902896B115901F
:103C7000289DE09F90289CE09E5052E490289EF062
:103C8000A3F090289AB11590289FE09F90289EE07D
:103C90009E503AE0FCA3E0FD90289DE02DFF902887
:103CA0009CE03CFE902899E02405FB902898E034A5
:103CB000008B82F583E5822DF582E5833CF583E474
:103CC00093FD12197190289EE4312580B590289BB0
:103CD000E02405B1239028988FF0121CAA61A62237
:103CE000902898E0FEA3E0F5828E832290289AF037
:103CF000A3EFF08D828C8322902898E0FCA3E0FD56
:103D0000F5828C83740193FB7A0090289BE0FEE49B
:103D10002BFFEA3E22E0FEA3E0FFC322FDE4F0A376
:103D2000EDF022FF90289AE0340022302A04C22AC3
:103D3000B14D22E5122407F582E43511F583227591
:103D4000FF01F5EA75EAFF900520022005C234E480
:103D5000902BF7F0C235A3F0A3F075FF01E5D52055
:103D6000E702C322C253D127203402A1FB53F4DF60
:103D7000902BF7E0FF12376EF1BE30350543F4406B
:103D8000800353F4BFE4F5FF53F5F0902BF8E0FA0D
:103D9000A3E0FBEA42F5EBF5F6D253D127123760E8
:103DA000E4F5FFE59320E60512374740F330355838
:103DB000E5F430E3047D288010E5F430E2047D284A
:103DC0008007E5F430E1027D28D1487F2812376270
:103DD00012374740FB7F781237621237475029F17C
:103DE0007E50F7F191EFC39D50F0F17E50ECE5F776
:103DF00020E5E7C253D127D14880DF53F4BF1257E3
:103E000052400543F420F1B7D32275FF03D3EF945A
:103E100002EE9400400874FE2FFF74FF3EFEEFF5A3
:103E200092EE540FF59122AFF4EF547FF5F4305336
:103E300005EF4480F5F475FF01E5D520E702C322C4
:103E4000E5F4D330E601C32275FF03E4F59122E4E3
:103E5000902BACF0A304F0E4902BAFF0E5FA30E146
:103E6000FB75FF01E5D530E7037F0022E4F5FF7520
:103E7000E508F1B7E5D530E61A75FF01902BAEE500
:103E8000DAF0E4F5DA75FF01E5D630E3FB902BAF0D
:103E90007401F0125D03E59B30E7FBE4FB75FF0363
:103EA0008B95124142FF1246080BEBB403EF75FFEE
:103EB00003759580D1FF75FF0143D504902BAFE0CA
:103EC0007006D1487FC8F1117B017A2B79AD12576A
:103ED0005A902BADE0902BAC7006E04404FF8002BA
:103EE000E0FF902BACEFF090120EE0B40102F1BEB7
:103EF00075FF01902BAEE0F5DA902BACE0FF22E4E9
:103F0000F5FF758EC8F16375FF0153D5FBD1487F6E
:103F1000147E00D10A12376775FF03E59120E7FB95
:103F200022CDEFCDCCEECCF185AB94EF4BF1E3CBD2
:103F3000EFCBFAE59130E71DF188A994E9F582EF1E
:103F40004582FFEB2DF582EA3CF583C3EF9582E5D0
:103F5000F0958340DEE59120E708CEECCECFEDCFA3
:103F6000F11322E4F5FF75C2E17F1EF1C530E707CA
:103F7000E4F5FF75C2A122E4F5FF75C2812275FF49
:103F800001E5E4332275FF03AF93EF75F010A4FF52
:103F900022125742AFD922E4FFE5F754C0600280F5
:103FA000F075FF01E5D530E30DF17E50F4F191EFAE
:103FB00060EFF17E50EB2275FF0153D8EF2275FFC1
:103FC0000143D81022FEF12190120FE022E5F754B0
:103FD000C024FF22FFE4F0A3EFF022E92401F9E47A
:103FE0003AFA2224FBFFE5F034FF22F185AD94EF8D
:103FF0004DF1E38FF0121D86E591C330E701D32226
:10400000902B3CECF0A3EDF0AA07AF03EF70010F8B
:10401000EF75F00AA4FFAEF0EA124EE21146EA1282
:104020003425EEF0A3EFF0902B3FE0FFEA12343599
:10403000EFF0902B3CE0FEA3E0FFEA75F007A4242C
:10404000A9F582E43424F583EEF0A3EFF022902664
:10405000EC121FBCE4F5FF75BB0575BB8575FF0150
:1040600075D502204C097F3FFE123F13123F637546
:10407000FF0143D520304C022116E4F5FF538EF7A3
:10408000438E077D04E4F5FF8DBCF5FF43B102E5E7
:10409000B130E2FBE4F5FFAFDFEFFEACDEECFBEBB3
:1040A000FFED25E024EAF582E434261146E4F5FF2D
:1040B000F5FF53B1FD0DEDB40CCB9026EC3150FF64
:1040C0007809121F1FA3EEF0A3EFF0E4FDED25E049
:1040D00024F4F582E43426F583E0C313FAA3E01355
:1040E000FBF1ABF583125AF72BFFEE3AFEF1AB1161
:1040F00046ED240490120DF0EDC394075018CFED57
:10410000CF0DEFF1AC123450FFC39026F1E09F9039
:1041100026F0E09E50B7E4F5FF758EC8F5FF9012CB
:104120000DE0F5BCE4F5FF75BB8075FF01F5D52208
:10413000E0FB25E025E02401F582E43412F583124A
:104140001FBCEB25E025E02401F582E43412F58361
:10415000E0FCA3E0FDA3E0FEA3E022902668121F8E
:10416000BC9026787401F0E4A3F012593175FF0277
:10417000E5E630E00E9026797401F0FB7A26797935
:10418000125638902683121FC8002DC6C0E4F5FFD2
:10419000F5A490120FF090267A7402F075FF039048
:1041A000267AE0FFF595EF14601314601C2402706A
:1041B000279026683150F19D902674801690266CC9
:1041C0003150F19D902675800A9026703150F19DF6
:1041D000902676E0902687F012595E902687E07050
:1041E00005125CBB806290120EE004F090267A12F9
:1041F0005D10902679E0701A902683315090267FCA
:10420000F1C2C3121F0E500A90267F3150FFA31235
:104210001FBC902687E0FF1257B2902677E0FF90F0
:10422000267AE0FDA250924D1258DF902679E07078
:104230000E90267F3150F1DD90267AE0FF91649058
:10424000267AE03143FFD108125DA16002219C90E3
:104250002679E07045A37402F075FF0390267AF189
:10426000EA7012902683913A7801121F1F90267AE5
:104270003130FFD108125DA170DF902683315024C8
:1042800020FFEE344E915CE4FB7A04F9F8914A7811
:1042900001121F1F90267B121FBC12574C40034374
:1042A000F420A250924E125811902679E024FF92E9
:1042B0004C90267B3150FFF1CFE4F5FF75E50812F5
:1042C0005D03E59B30E7FB123EFF75FF0143D5041C
:1042D0001237609114123F187B017A2679781257B1
:1042E0005A90120EE0B40103123FBE902678E0B45B
:1042F0000103D38001C322902688121FBC125931BA
:1043000090269D121FC8002DC6C0E4F5FFF5A490AD
:10431000120EF0A3F09026987402F075FF03902619
:1043200098E0FFF595EF14601314601C24027027C9
:104330009026883150F196902694801690268C31E4
:1043400050F196902695800A9026903150F19690E3
:104350002696E09026A1F012595E9026A1E0700505
:10436000125CBB805290120EE004F0902698125D11
:104370001090269D3150902699F1C2C3121F0E5005
:104380000A9026993150FFA3121FBC9026A1E0FF8E
:104390001257B2902697E0FFA3E0FDA24F924D1274
:1043A00058DFA33150F1DD902698E0FF916490260C
:1043B00098E03143FFD108125DAA6002611B7402CC
:1043C000F075FF03902698F1EA7017FF7E04FDFC5C
:1043D00090269D913F7801121F1F9026983130FF43
:1043E000D108125DAA70DA12574C400343F420A2A0
:1043F0004F924E12581190269D31502420FFEE34DA
:104400004E915CE4FB7A04F9F8914A7801121F1F7F
:10441000C24CF1CF9012137401F07E127F01E4FDC3
:104420008F828E83EF2DF582E43EF583E0FC9012BF
:1044300013E02CF00DEDB412E722FF7E04FDFCE04A
:10444000F8A3E0F9A3E0FAA3E0FB121DC0E47B7D32
:10445000FAF9F8121E4BEF2401FFE43EFEE43DFDA5
:10446000E43CFC22902B4FEFF0E4A3913A78011248
:104470001F1F902B4FE0FBF1B6F583121FBC90126B
:1044800010E064806074E0C3947F503AEBF1B6F5BD
:1044900083C083C0823150FFEEC0E0EFC0E09012D5
:1044A00010E075F004A4AEF0FBCAEECAEA3395E062
:1044B000F9F8D0E0FFD0E0FEC3EF9BFFEE9AFEEDEF
:1044C00099FDEC98802C902B4FE0F1B6F583C083DA
:1044D000C082F1C3901210E0F40475F004A4FFAEA2
:1044E000F0EE3395E0FDFCEB2FFFEA3EFEE93DFDEB
:1044F000E83CFCD082D083121FBC22902A5F124F6E
:1045000003902A657401F0C25112370C12374750DC
:1045100005E5FC20E6F6125716BF0108E4F5FC7528
:10452000FC408008125716BF0202D322123FB790F8
:104530002A60E0FF12599775FF0153D5DF53FAFB4C
:10454000902A5FE0FF12376E902A60E0902A5FB4F5
:104550000809E03143245291598004E03143FFD1EE
:1045600008902A61E0FFF1E475FF0175FF03759B78
:104570000412370C75FC42E5FC20E1051237474078
:10458000F3902A62E0F075FF03E59B20E705123700
:104590004740F3E59B20E70D75FF03759B1F12361F
:1045A000EFD251804FF1A4125638902A60E0FD906E
:1045B000120FE05D701C902A5FE0FFF1A4124BF82F
:1045C00090120FE0FF902A60E0FEEF4E90120FF085
:1045D0009114123F637B017A2A7963123FEB500FEB
:1045E000C3902A64E09420902A63E0940340E6F1AB
:1045F000A412575A123F18305102A101902A65E0C7
:10460000B40103D38001C322902BA8121FBC75FFF5
:1046100001902BA8A3E0FDA3A3E4FFFEE4FC781027
:10462000121F1F8FE1902BA8A3A3E0FEA3E4FFE4D9
:10463000FDFC7808121F1F8FE2902BA8A3A3A3E014
:10464000FF8FE32290291612570FE9F090291C12D0
:104650001FC8000000019029207401F0F5FFE5D586
:1046600054C070051236D95002C322E4F5FF5396A8
:104670007F75FF0175D5047F3FFE123F1375FF0163
:1046800043D508E4F5FF5394FBF5FF53847FF5FF12
:104690007598FF90291AE5F4F075F49C75FF01A355
:1046A000E5E4F075E4257B017A29792012563890EB
:1046B0002920E064016002E174F5FF902919741467
:1046C000F090291C3150FF7801121F3290291C12E2
:1046D0001FBCE5A730E1FB43A70290291C3150FF26
:1046E000E5A730E005E47B018002E4FBFAF9F8EF8E
:1046F0004BFFEE4AFEED49FDEC48FC90291C121FD1
:10470000BC902919E014F070B890291C3150FF7842
:1047100010121F1F7B6D7A4E79C67841121DC0EFB3
:104720002439FFEE3430915CE4FBFA7901F8121E73
:104730004BEE547FFEE4FDFC124F1990291C3150C2
:10474000FFEB6FFFEA6EFEE8CDEFCDCCEECCECFFD9
:1047500090291612566FEF121BD990291612566F18
:10476000900001ED121BEB90120FE030E606E4F52D
:10477000FF75968075FF01E4F5D590291AE0F5F4F0
:1047800075FF01A3E0F5E4125800902920E0B40180
:1047900003D38001C322FF902699021FBCFF9026FD
:1047A0007F021FBC7B017A2A796522ED25E024F285
:1047B000F582E434262225E025E02401F582E43464
:1047C0001222FFE0F8A3E0F9A3E0FAA3E0FB221134
:1047D0004EE4F5FFE5BD54F84404F5BD22FF902BEF
:1047E00050021FBC75FF018FDA22E0F595E5F45405
:1047F0000722902B40124F007FFFA3E0F9E9C394FA
:104800000C5024E9123425E0FCA3E04C7016AF01F3
:10481000902B40E0FC1128A3E0902B3FF0124000C9
:10482000E904FF220980D622A3E0FDA3E0FB22E4F5
:10483000FB7D01E4902B44F080B8902A43122025A0
:10484000902A431220057188AE04AF05902A48E0F3
:10485000FDA3E0FB1133902A437198902A43719293
:10486000B4FF04E4121BD9902A437192FF229005F1
:1048700047122025D246C2EBE514600241D5E5156A
:1048800030E202C32251DE24E5719FF1BF71305442
:1048900007FF90051EF0D18E90054AEFF0E5153028
:1048A000E00221231236D940057F011234DE900543
:1048B0004AE0FF7B017A05794B125678E43351DDEB
:1048C00024E6F9E43AFA7401121B84EF7004D2EB87
:1048D00041B590054AE02421D1B4E0FF90054BE0BA
:1048E000D39F403FD2EBF133A22992ED90052FE008
:1048F000601451DE24E5F9E43AFA7401121BD9433D
:104900001504717DD32290053EE070157B017A0578
:10491000793E7C507D0F902A487464F0E4A3F01136
:104920003AC3221236D95005C25212351F1237BF70
:10493000E5D120E0FBE4F510C22A71305407C3949E
:1049400003E49400502E51DE24B1712951DD24D8A6
:1049500071292FFFE433FED3EF9440EE64809480FE
:10496000401251DE24E5D1A5121BD9431504A2291A
:1049700092EDD32251DE2408F9E43ACFE9CFF511C4
:104980008F1251DE24B17129F516AE11F15C51DEA2
:1049900024B2F9E43A8B1CF51D891E51DE24D8712E
:1049A00029F51F7130FDACF05460602D51DE24D923
:1049B0007129FFF199C2467119FB7A0090053FD128
:1049C000AC7D18121C0DEF2BFFEA3EFEEF2414FB0A
:1049D000E43EFA7D027F0141A57130540790051E27
:1049E000F075140851DE24B2F9E43AFA71A751DEE9
:1049F00024D87129FFAD16F10C90051EE0640370F8
:104A0000237B01FD51E9D3717450057401121B849D
:104A1000E4F5FFD1F7121B3E2428FBE433FA7D03B3
:104A2000E4FF41A590051EE06402702651E6D371B3
:104A300074400574FF121B84E4F5FFE5D2548044F2
:104A40000AF5D2121B3E2414FBE433FA7D027F01E7
:104A50008053E451E6D37174400574FF121B84E463
:104A6000F5FF7130441045F07F0560027F0AEF5476
:104A70007FFFE5D254804FF5D2E4F5FF43D2807139
:104A800019FD7C007130441045F07E0060047F0AFF
:104A900080027F05EF25E0FFEE33FEEF2DFBEE3CBD
:104AA000FA7D017F011250FF7130FFAEF0A24692F5
:104AB00045B1844006A22992EDC322717D90054A3A
:104AC000E051DD24E8F9E43AFAEF121BD9A2299269
:104AD000EDD2EBD322A22992EDD2EBC322FF9005B7
:104AE00047122005E922FB7D01FF71409005471226
:104AF0002005E924B1F9E43AFA121B3EFF9005477C
:104B0000122005E924D8F9E43AFA121B3E2FFFE4FB
:104B100033FEEF2401FFE43EFE900547122005E935
:104B200024B2F9E43AFAE92407F9E43AFA021B3E1E
:104B3000900547122005E92404F9E43AFA021CD64C
:104B4000E4F5FF75D102E5D120E0FBE4F5FFF5D1F6
:104B5000EF6008E4F5FF43D2808006E4F5FF53D20E
:104B60007FEB6006E4F5FF43D104ED6006E4F5FF5A
:104B700043D108229FEE6480F874809822E4900567
:104B80002FF07B017A05793E121B3EFF71B3E402E0
:104B90001BD9122005021B3E122005EF021BD9F97A
:104BA000E43AFAE4021BD9E4F5FFE9D1EEEA540F46
:104BB00042D622D1BC500DD1E1D19EEF123425E472
:104BC000F0A3F00EAF062290051FE0FDFFC3740EA8
:104BD00071F1EFC4F8540FC868FFEEC454F048FEFA
:104BE000E51754F0C371747F005002AF0522FFE057
:104BF000C39FFFE49400FE22902BB0EDF0901211C1
:104C0000E0F46005A3E0B4FF0C902BB27418F0A39D
:104C10007413F08010901211E0902BB2F0901212E9
:104C2000E0902BB3F0121B3E64016002A15D902B5B
:104C3000B0E0FE64086004EEB40408902BB1742860
:104C4000F08006902BB1743AF0EF124143FF121E30
:104C5000EAB15EEF24D8FFEE343FFEED3493FDEC75
:104C60003416FC7B007A8079037800122432F11923
:104C7000902BB3E0902BB271EEE4FCFD121DC0EC62
:104C8000C0E0EDC0E0EEC0E0EFC0E0902BB3E0FF8D
:104C9000E4FCFDFEB15FD0E0FBD0E0FAD0E0F9D05B
:104CA000E0F8EB2FFBEA3EFAE93DF9E83CF8902BFF
:104CB000B1E0FFE4FCFDFE121DC0EF2454FFEE3412
:104CC0000B12445CE47BA87A16F9F8122432CBEF7D
:104CD000CB902BB0E014605D14601B24FE600C24AC
:104CE000FC707AE4F5FF75CE318006E4F5FF75CEF1
:104CF00021F5FF8BCF22E4FAE4F5FFEA2440F5CE5C
:104D0000E4F5FFEAFFC3740771F174FC2FF58274B8
:104D1000243EF583E4B167C39DF5CFE4F5FFEA24B3
:104D200048F5CEE4F5FFEA9024FCB1672DF5CF0AF3
:104D3000EAB408C422E4F5FF75CE01F5FF8BCFF588
:104D4000FF75CE0EF5FFEB25E0F5CFE4F5FF75CE50
:104D50000FF5FFCFEBCFEB75F003A4F5CF22E47B8B
:104D600064FAF9F8021DC09325E0FDE433FCEB750D
:104D7000F010A4FFAEF0121C1FCDEFCDEBFFE4C38B
:104D800013EF13224315015315DFB1C5D13E400483
:104D9000E4F5142243FA045315FB3045051237B1EC
:104DA000800A7F55B1AE7F55B1AED2EBD32275FFED
:104DB00001E5D520E602C322E5FA540360FA75FF47
:104DC000018FC3D322EF30E303AF1322AD1B202B9F
:104DD00004EE30E00BE517C394F0502071C7801843
:104DE000E5196006FDE4F5198012E517C394F0504B
:104DF0000BE517540FFF6004B1FFAD07AF0522F1BB
:104E000026FFC3940E40027F0DEF9024AE93FF2245
:104E1000CEEFCE75FF01E5D520E602C32243FA04AA
:104E2000E4FDEDC39E50077F55B1AE0D80F4E5FA69
:104E3000543070047F0F80027FF0B1AED322900512
:104E400050EFF090051EE0FFD18E900551EFF090ED
:104E5000051EE024FD601304700890054F7404F0F3
:104E6000800E90054F7408F0800690054F7402F094
:104E70007F01121AB6900551E0FF90054FE0FDA3A7
:104E8000E0FBE4902A62F01244FB50E9D322EF24C5
:104E9000FD600680007E018002E4FEAF0622F583FD
:104EA000E4F0A3F022F9E43AFA740222E0FEA3E06F
:104EB000FF7C0022F582E43422F58322E4FE1FEF1A
:104EC000C3940C22D1BC5016D1E1F583E0FCA3E0E1
:104ED000FD4C600AEF123425ECF0A3EDF00EAF06A6
:104EE00022EF75F007A424A7F582E4342422F5D735
:104EF000E4F5FF53D6F022E5D254804414F5D222D3
:104F0000EEF0A3EFF0A3EDF0A3EBF022E4F5FF8FBA
:104F1000D4F5FFCFEDCF8FD522C8ECC8C9EDC9CAF3
:104F2000EECACBEFCB22E517C4540FFEEF9024CC92
:104F3000932E22C3900526E094FF900525E094FF70
:104F40005004E412392522902A13F07E1A7FF27B56
:104F5000FF7D64902B447402F00247F2E4F5FFEF0A
:104F6000F5D8E4F5FF53D60FEE540FC4F854F0C84B
:104F7000E4C4540F4842D622E4F5FF75D102E5D1CE
:104F800020E0FBE4F5D1F5FFEFD1EEEE540F42D671
:104F9000E4F5FFCFEDCF8FD422751401751A13906D
:104FA0000530EFF090051E7402F0ED90053F30E5FE
:104FB00007E4F0A3743AF022E4F0A374E6F0229040
:104FC000121EE0F4FFA3E06FFFA3E06FFFA3E06F0A
:104FD000FF644A6009EF640A6004EFB455010F9062
:104FE000051DEFF022AD07AC06123752C3EF9DEE60
:104FF0009C4008EF9DFFEE9CFE8013EDF4FDECF469
:10500000FCED2401FDE43CFCED2FFFEC3EFE22E430
:1050100090053EF090052F04F022A22A221236D9E4
:105020005004112E4003302A03D38001C322E5F738
:1050300054E024FF22AF14EFC36001D322EFC394E6
:105040000E500590051FEFF022E517540FFF22E5E3
:1050500017C394F050205317F0124F26FE740FC35D
:105060009F4005EE940E400543170D8003EF421755
:10507000E517540FFF227F0022E51754F0C4540FA8
:105080002FFFC3941040027F0FEF9024BC93FF22A8
:105090007E10EE60091EEE9024BC93B507F4EEC3BB
:1050A000940E40027E0DEE9024AE93FF22E4F514A0
:1050B0000234F9C2AFEF4215D2AF22EF24FE600CEA
:1050C00024FE600580007F01227F02227F0322E50B
:1050D0001520E5081237BBE5D120E0FBE4F51022EE
:1050E00011E95004E412392522C3900524E094FF0D
:1050F000900523E094FF2290053FE0A3E0FF22907B
:105100000555EFF0ED24FE60191460262402703B73
:10511000EB2402FFE43AFE7C007D50121C0D7D6002
:10512000801E3173C333CE33CED8F9FF7C007D2887
:10513000800E3173C333CE33CED8F9FF7C007D644B
:10514000121C1F900556EEF0A3EFF0900555E031CC
:105150007EC083C082121F7B900557E02401FF9020
:105160000556E03400FEE4FCFD121DA5D082D0837C
:10517000021FBCEB2401FFE43AFEEF78032225E096
:1051800025E02431F582E43405F58322EF317E12E7
:105190001F5F021F45E490053131ACE490053531C5
:1051A000B3E4FFFEFDFC900539021FBCFFFEFDFCD1
:1051B000021FBCFFFEFDFC021FBCA2EB9248C2EB2B
:1051C0007A0579237B017D0CE4FF121958A24892DD
:1051D000EB22A2EB9249C2EBEBC0E0EAC0E0E9C0EF
:1051E000E07A05792331FAD0E0F9D0E0FAD0E0FB9B
:1051F0007F0C121980A24992EB227B01902A710246
:1052000020257F017E009017FCE4935EFE740193DD
:105210005F4E24FFB322900001740193B40007E4B1
:1052200093B41802C322D322EF600775FF0243E64E
:10523000102275FF0253E6EF22EF7011ED60077543
:10524000FF0143AE012275FF0153AEFE22EFB40110
:1052500014901232EDF0600775FF0143AE02227523
:10526000FF0153AEFD2275FF02E5E630E2037F0346
:1052700022E5E630E3037F0022E5E630E1037F0428
:1052800022E5E67F0530E0027F0122EF600775FF2F
:105290000253E6BF2275FF0243E64022EF14600F7F
:1052A000146014240270188B8075FF018DFD228B11
:1052B0009075FF018DC9228BA075FF018DCA22AFA9
:1052C000038FB075FF01AF058FCB22902A4B1220C0
:1052D00025EF1460111460182402701E7105E5801A
:1052E000710BE5FD801C7105E590710BE5C980121D
:1052F0007105E5A0710BE5CA80087105E5B0710B79
:10530000E5CB021BD9902A4E022005121BD975FF4E
:1053100001902A4B022005E4F5FFAF9122E4F5FF4E
:10532000AF92229027B1E0121BD99027B6E09000EF
:1053300001121BEB9027B7E0900002021BEB902CB0
:1053400083EFF09027BDE0640270261227F3902CC3
:1053500083E07FAB60027FB912268F1228F8902C71
:1053600083E09027BCF070047F1EDFFEE4FF12276D
:105370007C227B017A2779B47F03B1387A2779BD03
:105380007F08B1387A2779BA7D027F09121A5C7BCF
:10539000017A2779B87D027F0B121A5C9027B81228
:1053A0002FD96006BEFF1BBFFF189027BDE024FD6C
:1053B0006003047004B14080099027B8E4F0A3743E
:1053C00040F09027BDE024FD60030470089027B5ED
:1053D0007403F080069027B57402F09027B4E012B1
:1053E000213253FE04540914541115541917542F23
:1053F00030543734543F365447370000542475FF37
:10540000015354EF8554FD804775FF015355EF80DC
:105410000E75FF015355DF800675FF0153557F85DB
:1054200055C9802C75FF015356DF8556CA802175FA
:10543000FF015357FE801675FF015357EF800E751D
:10544000FF015357BF800675FF0153577F8557CB28
:105450001228F87F11B12AE4FF713E122697902797
:10546000B27402F09027B6E0247F6009047016B190
:1054700030740A80071227D9B1307458F09027B5DC
:105480007403F0B1409027B7E0F46002A1279027A1
:10549000BAE0FEA3E0FF64104E70069027B7740ECA
:1054A000F0EF64204E70069027B7740FF0EF644061
:1054B0004E70069027B77410F0EF64804E7006901F
:1054C00027B77411F0E4B5070AEEB401069027B7C8
:1054D0007412F0E4B5070AEEB402069027B774130D
:1054E000F0E4B5070AEEB404069027B77414F0E4AC
:1054F000B5070AEEB408069027B77415F0E4B507AF
:105500000AEEB410069027B77416F0E4B5070AEE59
:10551000B420069027B77417F0E4B5070AEEB4403C
:10552000069027B77418F0022975EF4420F5FE2283
:105530007F10B12A9027B2227D01121A5C7B0122D2
:105540009027B87401F0A3E4F022FEAF01E4FDABB4
:1055500005E4FCFD902B4EEBF00227889025D81235
:105560001FBC9025DC122025E49025FFF0D3902568
:10557000E0E0941E9025DFE094004001227B017A58
:105580002579E19025DFE0FFA3E090298FCFF0A3FC
:10559000EFF09025D8121F5F122E0D9025DC1220FF
:1055A00005E94A600B9025FFE0F582B1E0FF80023B
:1055B0007F009025FFE024E1F582E43425F583E0C7
:1055C0006F6002C3229025FFE004FFF0D39025E036
:1055D000E09F9025DFE0940050C1221220058E82CA
:1055E000758300021B57902A5A122FE8C007902A91
:1055F0005A122005902A5DB1FDD007A15CE0FFA3FF
:10560000E09025DFCFF0A3EFF022E4FF02277C90AB
:1056100027B3E0FF22E49027B3F022E4F5FF8FD414
:1056200022E4F5FFE5D1540133333354F8FFE4F5B8
:10563000FFE5D354074FFF22902BF4F10FE9F07FE1
:10564000017C127D01E4FE8D828C83ED2EF582E4D7
:105650003CF583E02FFF0EEEB412EC901213E06FD6
:105660006009902BF4D16FE4121BD922902BB5E086
:10567000FBA3E0FAA3E0F922902BB4EFF0A3F10F23
:10568000E9F075FF01F116EF64016002C322E5F451
:1056900030E602C3227FE87E03123E0A123767D14A
:1056A000F8400122C25212351F902BB4E0FF12378E
:1056B0006E53F4DFD25212351F7F787E00123F21E5
:1056C00075FF0153E4BFE5E430E7FBF1427F8A1246
:1056D0003FC530E605D16CE4800775FF01D16CE56C
:1056E000D9121BD975FF0143E440F152400343F442
:1056F00020D1F8400122D322E5F730E510E5F75438
:10570000C0700512374740F0123E48C322D322EB47
:10571000F0A3EAF0A3227FFA123762E5FC30E60537
:1057200012374740F6E5FC30E6037F032275FF01A0
:10573000E5D530E6037F0222E5D57F0030E7027F22
:10574000012275FF01E4F5EA75EAFF2275FF037592
:10575000958090120EE0D3940122C24B75FF037521
:105760009B1F75FF0390120FE020E71BE59A540F73
:10577000C394024012E04480F0E4F5FF75C2A143F7
:10578000FC0475FF03D24BE5FC30E609E59A540FA3
:10579000C3940540CDE5FC30E611E4121BD975FC3D
:1057A00080F5FC75FC40E5FC20E6FB304B03124421
:1057B0001422EF30E00E43F401E4F5FF43A404F5B6
:1057C000FF759624EF30E10E43F401E4F5FF43A4A6
:1057D00008F5FF759624EF30E20943F402E4F5FF83
:1057E00075961EEF30E30943F404E4F5FF75961057
:1057F00075FF01EF5403600475D7122275D72D226F
:10580000E4F5FF7584E6F5FF439404F5FF759814FD
:1058100022E4F5FF75933F75FF03759A401100E48C
:10582000F5FF759C93F5FF75A1A3F5FF758531F51F
:10583000FF758628E5FA54304480F5FA75FF017546
:10584000E74A75FF0275DF4975FF0143D30475FF11
:105850000153D367E4F5FF53E6BF75FF0175D82503
:10586000F5FF75B503F5FF75B215F5FF75BA02F5CD
:10587000FF75AFB3F5FF75CD0AF5FF75CB08F5FFE2
:1058800075CA12F5FF75BF0EF5FF75CC96F5FFF5DD
:10589000BDF5FF75C281F5FF75AEE1F5FF75DA550F
:1058A000F5FF75F580F5FF75E903F5FF75E933F54B
:1058B000FF75972A75FF01759B42759CA4759D29FC
:1058C000759E48759F2475A11275A312759AF820CC
:1058D0004E0CF5FF43968090120FE04440F022CC2E
:1058E000EFCCCFEDCF74017E00C8EFC8088005C3B0
:1058F00033CE33CED8F9FFCDECCDEF5D601B304D0C
:105900001875FF0175DCAD75FF0175DDCDE4F5FFA0
:10591000759A74F5FF7594842275FF0175DC5375D3
:10592000FF0175DD33E4F5FF759A14F5FF759404F6
:105930002275FF0243E1801236EF315453DB7F754D
:10594000FF0175D502123F0F315443DB8075FF0113
:10595000E4F5D52275FF01438E1075FF012275FF16
:105960000175E46575FF0175D64722E5FA5430FFED
:10597000BF30037F0822E5FA5430FFBF20037F04C5
:1059800022E5FA5430FFBF10037F0222E5FA5430BB
:105990007F0070027F012275FF01E5D530E602C36A
:1059A0002253FACFEFB4080543FA308012EFB40463
:1059B0000543FA208009EFB4020543FA108000D3B2
:1059C00022E5F45418131313541FFF22E5F754066D
:1059D000FFBF06037F0822E5F75406FFBF04037FDD
:1059E0000422E5F75406FFBF02037F02227F012253
:1059F000E5F71322EFB40109D2AD75FF0143AE40C4
:105A000022C2AD75FF0153AEBF2275C80122E5C8A1
:105A10005402FF75C80222E5C85401FF2230212438
:105A2000202221E5306402701B7B017A2079DE128E
:105A300019E49020DF7423F07B015153E4A3F0516B
:105A400047021A0C7F0022A3F0A3F090121CE0FF83
:105A50007DFF227A2079DE9022CCE02404902996E2
:105A6000F022902BF0124F0051D9AC00AD01AE02E4
:105A7000AF03C006C007902BF051F7FBAA06E4F96C
:105A8000F8D007D006D3121EF87E0050047F0180A4
:105A9000027F00C006C00751D9D0E02FFFD0E03E02
:105AA000902BF0F0A3EFF053ECFC902BF051F0545E
:105AB0000342EC75FF02EDF5AF75ED0275ED04A341
:105AC000E0600543EC08800353ECF7902BF3E060B3
:105AD0000443EC042253ECFB22902BF0E0FEA3E005
:105AE000FBAA06E4F9F87F807E387D01FC022432AF
:105AF000E0FCA3E0FDEC22E0C313FEA3E01322755B
:105B0000ED042275ED0222E5ED30E2FB75ED04AF08
:105B1000EF22AFEF228FEF22E5ED20E0FB8FEF22A7
:105B2000EF600443EC042253ECFB22EF600443ECEF
:105B3000082253ECF722E5ED5402FF22E5ED540470
:105B4000FF22E5ED5401FF22EFF0A3EDF0A30220C8
:105B5000259026AEE0FEA3E0FFF5828E8312202E74
:105B60009026A51220258F828E83740593FF7406DC
:105B7000939026B3CFF0A3EF22122005E4021BD9A5
:105B80009026A2122005E9240522AE02AF017B0176
:105B90007A2679B3902A56E4F0A3227F0112277C5B
:105BA0001227F77F0312268F9027B5E0640222EEBA
:105BB000F0A3EFF0A3022025EFC413131354012226
:105BC000122005900004021B577B017A12791C9069
:105BD0002AD8022025900001121BEB90000222C35C
:105BE0009026B2E099FF9026B1E09ACF24FECF3400
:105BF000FF2235F0FE022005E475F00102200EE0E0
:105C0000FF90298FE4F0A3EFF0229026B1E0FEA3ED
:105C1000E0FFD39026B4E09F9026B3E09E2290034D
:105C2000C5E0FD75F0AA9003C8121FF9AF82AE83DC
:105C3000EF221220057401021BD9EF4E9026B0F01E
:105C40009026AB122005E9229003C6E0FEA3E0FFF8
:105C5000124FE5D3EF94C8EE940022A3E0F8A3E03E
:105C6000C39DFEE89C902A56F0A3CEF022E92406BC
:105C7000F9E43AFA22E99582EA95832274FFF5F075
:105C8000121CC045F022FDEDFFEEF0A3EFF022EE76
:105C9000F0A3EFF0A3ECF0A3EDF022E0F582758322
:105CA00000EF021BEB902422E0FEA3E0FFD3940060
:105CB000EE940022E0900004021BEBF5FFF59675D0
:105CC000FF0175D70975F41822240CF9E43AFA2279
:105CD000AF03A3EAF0A3EFF0229026B1E0FCA3E02B
:105CE000FD29FFEC3A22122005E92FF9EA3EFA22BB
:105CF000122025021B3EE0FFA3E0902912CFF0A363
:105D0000EFF02275FF03759B0475FC4175FF0322BC
:105D1000E033333354F8F5F4229026B2E029FF90B3
:105D200026B1E03A22121F5FE402268FC39024239B
:105D3000E09FF0902422E0229026A8122005AE02D7
:105D4000AF01229026B0E0FFD39026BAE022F9E41A
:105D50003AFEAF0122E0FEA3E0FFF5828E8322F03F
:105D6000FCA3EFF0FD22901223E054302274FFF5E3
:105D7000F0121CAA45F0229003C0E0640122902991
:105D800014E0FEA3E0FF22FF907FC07401936F2216
:105D900074FF121B84021B3E9024F9E0FEA3E0FF77
:105DA0002290267AE0FF14F0EF22902698E0FF146C
:105DB000F0EF221227F77F0502268F9026B1E4F03C
:105DC000A37405229026B1E0FEA3E022E92407F99E
:105DD000E43AFA22FFEE5CFEEF5D4E22AA06A90726
:105DE0000221588B828A8302215C122AAD74FFFD46
:105DF000FC22F09027AFE0FFF422902C81E014F019
:105E0000E022C3E99FF9EA9EFA22D3EF9480EE9450
:025E100000226E
:0E5E1200FFFFFFFFFFFFFFFFFFFFFFFFFFFF90
:105E2000FFFFFFFFFFFFFFFFFFFFFFFFFFFFFFFF82
:105E3000FFFFFFFFFFFFFFFFFFFFFFFFFFFFFFFF72
:105E4000FFFFFFFFFFFFFFFFFFFFFFFFFFFFFFFF62
:107F8000020002120B120E020421021210124F0004
:0E7F900044040B0302125412620013FF0B0391
:027F9E00FFFFE3
:107FA000FFFFFFFFFFFFFFFFFFFFFFFFFFFFFFFFE1
:107FB000FFFF303030FFFFFF7FC65AB162E506CECB
:067FC000026E828338DB33
:0A7FC600FFFFFFFFFFFFFFFFFFFFBB
:107FD000FFFFFFFFFFFFFFFFFFFFFFFFFFFFFFFFB1
:107FE000FFFFFFFFFFFFFFFFFFFFFFFFFFFFFFFFA1
:107FF000FFFFFFFFFFFFFFFFFFFFFFFFFFFFFFFF91
:10800000EF547024F0602624F0603C24F060522489
:1080100030706730540B117E8002C333D8FC42802D
:1080200022117E8002C333D8FCF452802230540BDC
:10803000117E8002C333D8FC429022117E8002C39D
:1080400033D8FCF452902230540B117E8002C3339B
:10805000D8FC42A022117E8002C333D8FCF452A087
:108060002230540B117E8002C333D8FC42B022115F
:108070007E8002C333D8FCF452B02275FF01EF5466
:1080800007FF7401A8070822F9E43AAD01902C0A11
:10809000F0A3EDF0915F902BC8EFF0C39402400283
:1080A000417B902BC8B138E0FF902BCBF09022A001
:1080B000E0FEEFB50605E4F54D8006902BCBE0F52C
:1080C0004DE54D12D95C902BCB12D943E54D1226CC
:1080D000378F53E5535403FF602F902BC8E0FE51B8
:1080E0008EE0548FF074242E5190E04420F0902BB9
:1080F000C8E0FE9143E0549FF074172E9145E0FED6
:10810000EFC43354E0FFEE4FF0E4902BCAF0E4905C
:108110002BC9F0517CFA902BCAB159FA902BC9B1F6
:1081200077D10F8F53902BC8E0FF518EE0540FFE94
:10813000902BC9E0FDC39E500EEF9151E5822DB109
:1081400030E0FD7C00800F902BC9E07005FC7DFEC7
:1081500080047C007D00AF05EF65536002801EEF58
:1081600064FE7002417B902BC9E0FD6009EF700650
:10817000EE6D7002417B902BC9D1014096902BC9C6
:10818000E064047002417B902BCAD1014080517C95
:10819000AF01F54B8F4C518AE0540FF553E4902B0F
:1081A000C9F0902BC9E0FFC394045013AD4DF1AE5C
:1081B000517CD109EF6008902BC9E004F080E39076
:1081C0002BC9E0C3940440037403F0902BC9E0FF73
:1081D000AD4DF125902BC9EFF0518AE0540FF553C6
:1081E000E4902BCAF0E553700F517CFA902BC9B183
:1081F00059FEAF017DFE8024902BCAE0C3955350F9
:1082000026517CFA902BC9B159B175FEAF01E0FD42
:10821000902BC89150E5822DB130E0FD12554F9062
:108220002BCAE004F080D1902BCAE0C39404500D17
:10823000517CFA902BC9B159B17512554AE54DD10F
:10824000501226408F53518AE054F0C394025011CB
:10825000902BC9E011818002C333D8FCF4525380C3
:108260000E902BC9E011818002C333D8FC4253E544
:108270004DD15012D11DAD5312554F22E54D75F021
:1082800011A4240CF9740035F022902BC8E02424AA
:10829000F582E43412F58322902B68EEF0A3EFF020
:1082A000202D0C902120E0B40108912420E7037FC9
:1082B000FF2291377B012404912F129FE3600280FB
:1082C0000991377B012408912FFFAD0712CAD09086
:1082D0002B6CEFF0F4705012AD1C5036E004F0E45B
:1082E000902B6CF0902B6CE0FFC39402501074192B
:1082F0002FB13BE06008902B6CE004F080E6902BFF
:108300006CE0B402037401F0902B6CE024FF922C1B
:108310008015202E0CB22CA22CE433902B6CF08014
:1083200006902B6C7401F0902B6CB138ED9136FFF8
:10833000912B20E70261C0EF2409912F30E32090B8
:108340002B68A3E0240A912F129FD112DA9912B759
:10835000AE2401128DD15418FF913FEFF0800491AB
:108360003FE4F091377B01240A912FC4540FFF9012
:108370002B6C518DEFF0902B68E0FCA3E0240BF9FF
:10838000E43CAD01A3F0A3EDF0902B68A3E0240939
:1083900012DAA120E011AE071FEE603AB164FE913F
:1083A0004DB12DEEF080EFE4FEAD071FED6027B17B
:1083B00064FDAC060E914DE5822CB130EDF080E904
:1083C000902B6CE0FF518EE4F074172F9145E4F090
:1083D000EF915174FEF0902B6C518DC083C082E000
:1083E000FF902120E012DA20D082D0839136FF91D5
:1083F0002B30E708EF2409912F20E405912430E485
:108400000C12CA588002C333D8FC4F800B12CA58D2
:108410008002C333D8FCF45F90121BF0D22D902B56
:108420006CE0FF22902B68E0FEA3E07B012405F9BD
:10843000E43EFA021B3EF0902B68E0FEA3E022909F
:108440002B6CE02417F582E43412F58322902B6C18
:10845000E025E025E0242AF582E43412F58322ADFC
:108460000779FF302D02A12A12CAD0A907EFF470B4
:108470002812AD1C501AE004F0E4F9741929B13B3C
:10848000E0600509E9B402F3E9B4020D790180095D
:10849000202E04E4F980027901741929B13BEDF032
:1084A0007417299145E4F0902C0A12ADB3E0540FF3
:1084B000FE7424295190EEF07424295190C083C099
:1084C00082E0FD902120E0C454F0FCED4CD082D03D
:1084D00083F0EE6035E4FDAC061EEC6033902C0AB0
:1084E000E475F001305511121CAAB16EFCAB050DFC
:1084F000E99151E5822B800C121CAAB16EFCE99126
:1085000051E5822EB130ECF080CDE9915174FEF04E
:1085100090121BE0FEAF017401A807088002C3336C
:10852000D8FCF45E90121BF0D22DAF0122E5822F11
:10853000F582E43583F58322E02419F582E43412D0
:10854000F58322AE4BAF4C7C007D11121C0D741DC7
:108550002FF974003EFA90282AE075F004A429F956
:10856000EA35F022902B6AE475F001121CC085F008
:1085700082F583E022FAA3E07E0029F9EE3A22EFA9
:10858000547024F0601724F0601E24F0602524301D
:10859000702B117B8002C333D8FC42FD22117B80FB
:1085A00002C333D8FC42C922117B8002C333D8FCFA
:1085B00042CA22117B8002C333D8FC42CB22EF5443
:1085C0007024F0601824F0602024F06028243070BB
:1085D0002F117B8002C333D8FCF452FD22117B8023
:1085E00002C333D8FCF452C922117B8002C333D8B2
:1085F000FCF452CA22117B8002C333D8FCF452CB64
:1086000022E004F0E0C3940422FAE92DF9EA3CFEEA
:10861000AF01022647EF7002C322EF12DA5BFE12AF
:10862000D901D144D10FEF6019E4F54D12D8FFD133
:1086300044FAE54DB15AD10FBFFE02D32212D94BF5
:1086400040EAC322741D2FF974003E22902A85E06F
:1086500075F002A42484F9740F22902C4EEFF012CE
:10866000D953506190213512D95BD10F7880EFF644
:10867000604B12DA27F1AE902135E0517EFAE92DF8
:10868000F9EA3CFEAF0112B7A712A027902C4EE0EA
:10869000C454F07881F608E664FE6029E4FF748231
:1086A0002FF8E6700E902C4EE0601AEF701774FFF2
:1086B000F080127881060FEFB404E38008902C4E0E
:1086C0007404F0809A12D953400574FFF0805090E2
:1086D0002135D14F122640902C4FEFF012DA27F1BE
:1086E00025EF25E0FF902C4FE0FEA807088002C38D
:1086F00013D8FC540324FE600A2402700C7886769A
:1087000020800A7886761080047886760890213555
:10871000122636EF5403600725E044107886F69061
:108720002C4EE0FF22902B54EFF0A3EDF0E4A3F0E9
:10873000A3F0A37403F0902B55122636EF541C13AC
:1087400013543F902B57F0E0FF6015902B54E070CE
:108750000FEF14FF12ADC1902B57E0C39401FF221D
:10876000902B56E0FFC394045041902B5512AE530A
:10877000E0FE902B58E0FDEE5DFEEF25E0FFEEA859
:1087800007088002C313D8FCFF902B54E0B5070AFA
:10879000902B56E0FF902227F022902B56E004F019
:1087A000ED25E025E0902B58F080B57F0022F125E3
:1087B000EF75F004A4FDACF022902296E0902C8B93
:1087C000F0EF6028E0FF131313541FFE12ADB0A3A7
:1087D000A3A3E5822EB130C083C082E0FE117E806B
:1087E00002C333D8FCF45ED082D083F0902C8BE0AF
:1087F00004FF902C52EFF090229A123CE3A3A3E0E6
:1088000033333354F8902C53F02022030288AB907A
:108810002C53E0FF902C52E0FEC39F504DEE1313FB
:1088200013541FFF12ADB0A3A3A312852DE0FD7C4E
:1088300000EE11AF8005C333CE33CED8F9125DD42C
:108840006020902C52E0902296F0124BC7AD07901A
:108850002296E004FF7A197BD012C62AEF704E02EE
:10886000CFBB902C52E004F080A5C22BC2229022F4
:10887000997401F0902239F0A37407F0E4A3F0900A
:1088800022387403F0902297E0FF12C3BE9027E2D3
:108890007403F090223E12D9F190223DE0FB312A80
:1088A000EF700AFBFAF97F0202C2CEC22B22ED540E
:1088B00007FF74017E00A8070822AD07ED5470245D
:1088C000F0601F24F0603224F060412430705211B7
:1088D000AE8005C333CE33CED8F9AC8031236001EE
:1088E000D32211AE8005C333CE33CED8F9FFAC907E
:1088F000ECFBEF5BC36001D32211AE8005C333CE26
:1089000033CED8F9ACA031236001D32211AE80055B
:10891000C333CE33CED8F9FFADB0EF5DC36001D322
:1089200022C322FFECFBEF5BC3229027DC124F0334
:108930007F0212B9CA9027E612D8F8605D1237524A
:10894000F1F0E924EC12A46FF1F0E924E9124B9F55
:108950009027DCE0FFA3E0FD9027DF122005F1EA7D
:108960009027E2E0902785F09027E3E0902786F0BB
:108970009027E4E0FBA3E0902787CBF0A3EBF090F7
:1089800027E612B0489027DEE0FB31A09027E9EF00
:10899000F060037F0122F1F0F1F612CBCD7F0022CF
:1089A000902781EBF090278C7401F090278EEFF0E8
:1089B000902786E0FE54C0703C902785E0FCD3945D
:1089C0009F40037F0022902781E0B4FF09ECD394FD
:1089D0003640037F0022301F0C902785E0D3942E71
:1089E00040037F0022EE20E40C902785E0D394978B
:1089F00040037F0022716624B6F9E43AFAED121BB7
:108A0000D9902781E0716524BAF1AC716624DF1238
:108A10004B9F301F0DC21F902789129FED12B44A41
:108A2000800F902786E030E60B12DA89716612A774
:108A3000E0121BD9902786E05490705990278CE063
:108A40006401705190278912200512C92DEF6045ED
:108A5000902789124B335460600D902789129FED47
:108A6000B1D14410121BD9716624BCB1D154F0604D
:108A70000312DA89716624DFF1E3121BD990278E85
:108A8000E05498F0E0FF902789124B335467FEEFD3
:108A90004E90278EF0902781E0FDB4FF0790278647
:108AA000E054FAF0716624DFB1D1706B902786E054
:108AB000540564057061AF0512AE66505312CBA029
:108AC00090278EEFF07881E6540F90278DF060307C
:108AD000E0FF7404C39F40287166F1FAC003C0022E
:108AE000C00112B7A7F1BAD001D002D00312A61765
:108AF00090278DE0C454F0716524BCF1AC12DA8982
:108B0000716612D9C87880E6716524BAF1AC800725
:108B1000902786E054FBF0716624DFB1D1700574B4
:108B200006121BD990278EE0FF90278CE0FD90273E
:108B300085E09027FDF0902786E09027FEF09027B3
:108B400087E0FBA3E09027FFCBF0A3EBF090278911
:108B5000122005902801122025902782122005124C
:108B6000A4797F0122FF902789122005E922EF7066
:108B70000281B891C44A700281B8E924BBB1D130F6
:108B8000E00281B891C424B8B1D19028A391C31256
:108B9000B7A0F1BA7B017A2879A47F0712A61791B2
:108BA000C424B6B1D19028ABF07F0212B9CA902884
:108BB000A012D8F8700281B891BAF1E1121BD990D5
:108BC00028A6E0C4540FF404FFC3740B9F91B9248A
:108BD000D8F1AC91BA24B1124B9F9028A012200575
:108BE00012B45E9028A4E091B924B6F1AC91BA24F5
:108BF000B712B44A121BD94480121BD94440121B2D
:108C0000D991BA24B1B1D191B924D8B1D12F04915D
:108C1000B924B9F1AC9028A3E0540F91B924B8F16C
:108C2000AC9028ABE091B924BAF1AC9028A6E0FF53
:108C3000C454F0FE91BA24BB12D9A74401121BD927
:108C40004404121BD9EF24FE540FFF9028A6E054D1
:108C5000F0FE4F91B924BCF1ACEEC4540FFED39496
:108C600004AF0640027F0491BAF1FAC003C002C00B
:108C7000017B017A2879A7F1BAD001D002D0031282
:108C8000A6179028A0129FEDB1D112DA5191B92404
:108C9000B6B1D1FD91BA24BAB1D1FBC00391BA12D9
:108CA000A7B4F1EA91BA24B1B1D112D9D3F0902886
:108CB000A012B048D00331A022FF9028A0122005B6
:108CC000E922EFF09026BC122005E922902BD01269
:108CD0005BB212D57191C44AC36001D34002A1B303
:108CE00012D5665013E0FF9404500280027F049175
:108CF000C4F1FAF1BA12A61191C4124B375467901D
:108D000026CF91C324DFB1D19026CA91C324E9B103
:108D1000D19026D091C324EAB1D19026D191C32419
:108D2000EBB1D19026D291C324E7B1D19026C8915E
:108D3000C324E8B1D19026C991C324EC124B391257
:108D4000D9E3F012A7CBF1F6E49026BF91C324DC5F
:108D5000124B3945F06053902BD0E0602DA3F1B752
:108D60007B017A2679C37F0512A61712D587C00327
:108D7000C002C00191C424DC124B39F58285F08316
:108D8000D001D002D003E4FF801D12D587C003C0FC
:108D900002C00191C424DC124B39F58285F083D0E6
:108DA00001D002D0037F0112215C122E6C9026BCF0
:108DB0001220252290281F122005E92403F9E43A05
:108DC000FA121B3E90282AF090281F122005E92451
:108DD00002F9E43AFA021B3E902AE11220257F02B2
:108DE00012B9CA902AE412D8F87002E18CF196F117
:108DF000E1121BD9902AE112D4AFB1D1FF902AE140
:108E0000122005E92409B1D1C39F14FFF19624D89B
:108E1000F1AC902AE112ABF52409B1D130E336F17F
:108E20009612B451C003C002C001121B3EFF902A2B
:108E3000E112ABF5240AB1D1FE129FD1902AE112C2
:108E4000ABF5129E98129F5CFEC3EF9ED001D0023C
:108E5000D003121BD9F19624D8B1D1FED39426AFFA
:108E60000640027F26F19624B2F9E43AFAC003C024
:108E700002C001902AE112AD0CF1BAD001D002D0AB
:108E80000312A617F19612A60AE4F19324BBB1D1FE
:108E90004401121BD94402121BD990121CE0FFF1AD
:108EA0009624B6F1AC902AE112ABF52404B1D1FFBF
:108EB000F19624BAF1ACF19624BCB1D1FF540FFE67
:108EC000EF54F0121BD954F0FFEE14540F4FF193EE
:108ED00024BBB1D14408F19324BCB1D1902AE4F170
:108EE000C07401F19324BCB1D1C4540FFF902AE4A3
:108EF000F1C6121B3E4440F19324BCB1D1F1D7F12D
:108F0000D0E924BEF18D24BCB1D1F1D7F1D0E92450
:108F1000BFF18D24BCB1D1F1D7F1D0E924C0F18DDE
:108F200024BCB1D1F1D7F1D0E924C1F18D12B451F3
:108F30007405121B84F196F1E1F19324B1B1D1FFD4
:108F4000F19624D8B1D12F04FFF19624B9F1ACF1F8
:108F5000962403B1D112DA51FFF19624B6B1D1FDB6
:108F6000F19624BAB1D1FBC003F19612A7B4F1EA8D
:108F7000F19624B1B1D112D9D3F0F1DB12B04BD0BC
:108F80000331A09003B9E0700312B88722F9E43AE4
:108F9000FA747F121BD9902AE4122005E922FA12F2
:108FA0001B3EFF902812122005E92408F9E43AFA42
:108FB000EF021BD990281F122005902A710220254C
:108FC000C4540FFF7E00122005E924BDF9E43AFAEB
:108FD000E92FF9EE3AFA22C4540FFF902AE4022056
:108FE000052401F9E43AFA7403229027820220252D
:108FF0009027E6022005E4021BD924BDF9E43AFAE1
:1090000022EF14600D14600D14600D2403700CAF7A
:109010008022AF9022AFA022AFB0227F00227D0439
:10902000E4FF902BFA122025AE051DEE600C902B6C
:10903000FA12A7BCEF121BD980EE2290274CEEF05B
:10904000A3125B4812D9FFAA06F97B018B3F8A4025
:10905000F541A3E0F548D394085002A17AE924072A
:10906000128DD1FF90274EE0C39F5002A17AE4F504
:109070004690051CE0902120F012CEEC90274C1277
:109080008427FF540F640160022116EF30E74A90F5
:10909000274CA3E0FF240912842F30E312EF240AA7
:1090A00012842F129FD112DA99129F5CFF80027FE7
:1090B000007E0090274CE0FCA3E07B01240A12DA3A
:1090C000A1129FD190274CE0FAA3E07B01129E9859
:1090D00012B7AE2FF9EE3A800AAB3FE5412409F909
:1090E000E43540FA123FDB9027571220259027578E
:1090F000124B92FF601B64186017EF64076012EF59
:10910000B4031390275712B7DB12D97512C5287014
:10911000057FFE12D30090274F12200590281512CC
:10912000202512DA6EB19D12C76DB18C902220F00D
:10913000E54644016062A21BE433F53EE490275605
:10914000F0902756E0FFC394025020EF12D986FF1B
:10915000902220E0FEEFB5060A902756E024FF9209
:109160001B8008902756E004F080D6902756E0B484
:109170000206E53E24FF921B902120E0FDA21BE4A5
:109180003325E0FFE433FE742A2FF58274223EF586
:1091900083EDF0A21BB3921BE54620E202414F7F14
:1091A0000112B9CA90275212D8F87002414FB197F4
:1091B0007F0312B058B18630E40DB197E924B7129D
:1091C0008DD14410121BD9B197E924B1124B9F9055
:1091D000275212A7F8B194E924DCF9E43AFA741999
:1091E00075F08AB194E912B7A0E547121BD9902710
:1091F00052124B3312DAA8FD12A600B18630E50FE9
:10920000B197E924B7128DD14420121BD9803512B1
:10921000C585121B3E6401702BE92401128DD164B7
:10922000187021E545B4040EE544240312DA7512E2
:109230004DFF8F19800EAB42E544240212DA7512FD
:1092400050908F19B19712A5D820320312B88720F9
:109250001D0261B1E54630E61E9026BFE070026156
:10926000CDE412CDDF128CC424BC128DD154F0FD9C
:109270007C0012BB0861CDE54620E102612CE4F5DB
:109280003E128CC424B7128DD1FF540F6401706854
:10929000EF30E75A128CC424D8128DD1FFD3940A30
:1092A0005002A17A128CC424BC128DD1FEEE540F50
:1092B000FD902756F0BD0F028025EFD3940A50028F
:1092C000A17A128CC4128FFA902756E0FF7C0029F5
:1092D00012AFE9F53EEE54F0FEC4540FB5070A1282
:1092E0008CC424BA128DD1F53E12CE53800A128C52
:1092F000C424BA128DD1F53E128CC44A700261CDDD
:1093000012C76DB18C653E6008902136E070026135
:10931000CDB18630E70CE5412409B18C540624FF19
:10932000921912B65812CCFFC21961CDE54630E54C
:109330001C9026BFE0700261CD12D9FFFF12CDD97B
:1093400012B658AD0712DA6E12AD2461CDAB3FE50F
:10935000412408B18CF4601612D9FFFF12842B54FB
:109360000FFDBD0203D38001C3400312CDD9E546F2
:1093700030E30612DA6E128DD820565112CDF390DA
:10938000275512DA90111E902755E0902131F012E6
:10939000C76DB18C902132F012B65890213412DA98
:1093A0009090282312202512C585AD4512BB2B8035
:1093B0001C12A7CBEA494B60149026BBE0600E90CC
:1093C000212AE06008121A75E490212AF0E546206F
:1093D000E402A17A7F0212B9CA90275A12D8F87013
:1093E00003C21E22D21E129FF4128FBA12DA6590A7
